:020000040800F2
:1000000008050020B5910008D18F0008D38F0008A3
:10001000E18F0008E38F0008E58F00080000000072
:10002000000000000000000000000000E78F000852
:10003000E98F000800000000EB8F0008ED8F00083A
:10004000F1910008F5910008F9910008FD91000870
:100050000192000805920008099200080D9200081C
:1000600011920008159200081992000803900008E8
:100070001D9200082192000825920008299200088C
:1000800017900008219000080D9000082D9200089C
:10009000F98F000831920008359200083992000863
:1000A0003D920008419200084592000849920008DC
:1000B0004D920008519200083590000855920008B2
:1000C0003F900008599200085D9200086192000874
:1000D00065920008699200086D9200082B90000854
:1000E00071920008759200087992000880B500F0BE
:1000F000C5FE00F0EBFE0020DFF84C1C087003206A
:10010000DFF8441C48700020DFF83C1C8870002099
:10011000DFF8341CC8700920DFF82C1C087100209F
:10012000DFF8241C48710020DFF81C1C88710E20A9
:10013000DFF8141CC8717F20DFF80C1C0872002047
:10014000DFF8041C48720F20DFF8FC1B88727F2048
:10015000DFF8F41BC8720020DFF8EC1B08731520D1
:10016000DFF8E41B48737F20DFF8DC1B8873002076
:10017000DFF8D41BC8731720DFF8CC1B08747F206E
:10018000DFF8C41B48740020DFF8BC1B88741820FB
:10019000DFF8B41BC8747F20DFF8AC1B08750020A3
:1001A000DFF8A41B48751920DFF89C1B88757F2099
:1001B000DFF8941BC8750020DFF88C1B087614202C
:1001C000DFF8841B48767F20DFF87C1B88760020D0
:1001D000DFF8741BC8760120DFF86C1B087700205D
:1001E000DFF8641BC8830020DFF85C1B81F8200067
:1001F0000220DFF8541B81F821000020DFF8481BA3
:1002000048840020DFF8401B81F824000A20DFF832
:10021000381B81F825000020DFF82C1BC884002043
:10022000DFF8241B81F828001A20DFF81C1B81F856
:1002300029000020DFF8101B81F82A000020DFF8D9
:10024000081B81F82B001B20DFF8FC1A81F82C001A
:100250000020DFF8F41AC8850020DFF8EC1A81F8D6
:1002600030001C20DFF8E01A81F831000020DFF8B0
:10027000D81A48860020DFF8D01A81F83400002010
:10028000DFF8C41A81F8350000F0BAFE00F0D2FEA3
:10029000DFF8700B407850F00100DFF8681B487001
:1002A000DFF8600B407850F00200DFF8581B487010
:1002B000DFF8500B407810F0FB00DFF8481B487067
:1002C00001BD3EB50400DFF83C0B4078C0F3C00030
:1002D000C0B2002829D00025684600210160A0781E
:1002E00010F00F008DF80000A078A178C9B20909BC
:1002F00051EA00108DF80100E0788DF802002079B5
:100300008DF803000421684600F0AFFE00280CD0F1
:100310006D1CADB2B5F5966FF4D1DFF8E80A407800
:1003200010F0F700DFF8DC1A4870DFF8D80A4078E0
:10033000C0F30010C0B200281FD001A80021002285
:1003400006C0083820788DF8040060788DF8050024
:10035000A078A178C9B2090951EA00108DF8060009
:10036000E0788DF8070020798DF8080060798DF825
:100370000900062101A800F001FE37BD80B500F09C
:100380008AFF00F02AF800F048F800F036F8002262
:100390001021DFF8740A01F012F901F03FF9002191
:1003A000DFF8680A01F0F8F9FEE710B5002408212B
:1003B000DFF8540A01F0F7F8002807D1012001F016
:1003C00099FD641CA4B2FB2CF1DB05E0A4B2FA2C6D
:1003D00002DAFFF7D3FFEAE710BD80B50022402123
:1003E000DFF8240A01F0EBF801BD80B501222021DD
:1003F000DFF8140A01F0E3F801BD80B500222021E6
:10040000DFF8040A01F0DBF801BD80B5012280218C
:10041000DFF8F40901F0D3F801BD80B50022802196
:10042000DFF8E40901F0CBF801BD80B58021DFF8E9
:10043000D80901F0CEF801BD80B500F009F86420BC
:1004400001F058FD00F00CF8642001F053FD01BDEF
:1004500080B500220421DFF8B00901F0B0F801BD39
:1004600080B501220421DFF8A00901F0A8F801BD40
:1004700080B501224FF40071DFF8940901F09FF874
:1004800001BD80B501224FF48051DFF87C0901F0F5
:1004900096F801BD80B500224FF48051DFF868095D
:1004A00001F08DF801BD80B50322DFF86819DFF88F
:1004B000680901F086FE01BD00B589B068462021BB
:1004C00002F06EF901208DF8020002200290012056
:1004D0000490DFF848090790684600F0E5FDDFF872
:1004E0004019087009B000BD81B068460021016064
:1004F000DFF8200900887F21484340F6C37190FB54
:10050000F1F08DF80000DFF80C0940887F214843A6
:1005100040F6C37190FBF1F08DF80100DFF8F408AC
:1005200080887F21484340F6C37190FBF1F08DF83D
:100530000200DFF8F0080078DFF8EC180870DFF848
:10054000E80800780A219DF8002001FB00200B211B
:1005500090FBF1F0DFF8CC1808709DF8000000283F
:100560000AD09DF800007F2806D0DFF8B808007890
:10057000401CDFF8B0180870DFF8A8080078DFF832
:10058000A8180978884207D0DFF8A008007850F052
:100590000200DFF898180870DFF888084078DFF864
:1005A00088184870DFF8800840780A219DF80120FB
:1005B00001FB00200B2190FBF1F0DFF86818487078
:1005C0009DF8010000280AD09DF801007F2806D080
:1005D000DFF850084078401CDFF848184870DFF812
:1005E00044084078DFF840184978884207D0DFF89F
:1005F0003C08007850F00400DFF830180870DFF88D
:1006000024088078DFF820188870DFF81C088078CC
:100610000A219DF8022001FB00200B2190FBF1F044
:10062000DFF8001888709DF8020000280AD09DF8B5
:1006300002007F2806D0DFF8EC078078401CDFF846
:10064000E4178870DFF8DC078078DFF8DC1789783A
:1006500088423DD0DFF8CC078078DFF8CC17897866
:10066000491C884234D0DFF8BC078078DFF8B8171F
:100670008978891C88422BD0DFF8A8078078DFF8BA
:10068000A8178978C91C884222D0DFF8980780789B
:10069000DFF894178978491E884219D0DFF884075B
:1006A0008078DFF884178978891E884210D0DFF8B7
:1006B00074078078DFF870178978C91E884207D0E0
:1006C000DFF84007807850F00100DFF838178870B5
:1006D000DFF83007807810F00100002800F0E68095
:1006E000DFF840078078172825DADFF838078078A8
:1006F0000C2820DBDFF838070078401CDFF83017C3
:100700000870DFF82C070078072818DBDFF81C07D3
:10071000007850F02000DFF814170870DFF8E406C6
:10072000807810F0FE00DFF8DC1688700020DFF81B
:100730000017087003E00020DFF8F4160870DFF8F7
:10074000E4068078562825DADFF8D80680784B282A
:1007500020DBDFF8DC064078401CDFF8D416487058
:10076000DFF8CC064078072818DBDFF8C0060078F1
:1007700050F01000DFF8B4160870DFF888068078B3
:1007800010F0FE00DFF87C1688700020DFF8A0165D
:10079000487003E00020DFF898164870DFF8840600
:1007A0008078062820DADFF888068078401CDFF899
:1007B00080168870DFF878068078072818DBDFF865
:1007C0006C06007850F00800DFF860160870DFF85B
:1007D0003406807810F0FE00DFF8281688700020BC
:1007E000DFF84C16887003E00020DFF844168870AC
:1007F000DFF830068078262825DADFF828068078AA
:100800001B2820DBDFF82806C078401CDFF8201604
:10081000C870DFF81C06C078072818DBDFF80C0664
:10082000007850F04000DFF804160870DFF8D405B7
:10083000807810F0FE00DFF8CC1588700020DFF81B
:10084000F015C87003E00020DFF8E415C870DFF889
:10085000D4058078372825DADFF8C80580782C2879
:1008600020DBDFF8CC050079401CDFF8C4150871E7
:10087000DFF8BC050079072818DBDFF8B005007841
:1008800050F08000DFF8A4150870DFF87805807854
:1008900010F0FE00DFF86C1588700020DFF890156E
:1008A000087103E00020DFF888150871DFF874058F
:1008B0000078DFF880158870DFF868054078DFF889
:1008C0007415487101B0704710B588B0DFF868053D
:1008D00001F060FD040040F6E44000FB04F040F647
:1008E000FF71B0FBF1F4DFF81C050078C0F3401095
:1008F000C0B200286BD140F63810844205D3642082
:10090000DFF8441481F835000EE040F63810001B83
:10091000642148434FF4D371B0FBF1F0D0F164008F
:10092000DFF8241481F83500DFF81C0490F8350056
:100930000B2847DADFF8CC040078C0F34010C0B2CF
:1009400000283AD1DFF8F4040068012807D1DFF865
:10095000B4040078C0F38010C0B2002807D0DFF8DC
:10096000A4048078C0F38010C0B200281DD068466F
:10097000202101F015FF02208DF802009620029040
:10098000DFF8BC040790684600F08EFBDFF8B41473
:100990000870DFF87004007850F04000DFF864144D
:1009A00008700020DFF894140860DFF890040068F5
:1009B000401CDFF8881408603CE00020DFF87C145D
:1009C000086037E00020DFF87414086032E0DFF8D8
:1009D00034040078C0F38010C0B200282AD040F65A
:1009E000DE10844205D240F63810001BB0F5137FAC
:1009F0001CD3DFF85404006801280FD1DFF8040489
:100A0000007810F0BF00DFF8FC130870DFF8F40383
:100A1000007850F08000DFF8EC130870DFF828044D
:100A20000068401CDFF82014086003E00020DFF8B5
:100A300018140860FFF72EFD08B010BD80B50E2217
:100A40003B21DFF8080402F07DF801BD2DE9F843F1
:100A50000026002700240025DFF8F0030078DFF8E7
:100A6000EC13497851EA0020060036B2DFF8E003C3
:100A7000864202DADFF8DC03060036B2B6F5804FB4
:100A800002DB43F6DE70060036B216F1C70F47DA16
:100A90005FF0FF30464336B2412000FB06F002F023
:100AA000C3F8DFF8B41302F0D9F802F055F910F1E9
:100AB00040085FFA88F8404602F0C0F8DFF89C135F
:100AC00002F06CF98146DFF89803006802F0B6F88E
:100AD000DFF8901302F062F9494602F0CBF902F018
:100AE0003BF9C0B20400984890F82A00A04213D005
:100AF000954880F82A40DFF80C030078C0F3001016
:100B0000C0B2002808D0DFF8FC02407810F00100E5
:100B1000002801D000F05BF9DFF84403046047E0EF
:100B200036B2C82E44DB36B23F2000FB06F002F09E
:100B30007BF8DFF8241302F091F801005FF08540A4
:100B400002F0DAF902F008F980465FFA88F84046C8
:100B500002F074F8DFF8041302F020F98146DFF8A0
:100B60000003006802F06AF8DFF8F81202F016F9E4
:100B7000494602F07FF902F0EFF8C0B20400724873
:100B800090F82A00A04211D06F4880F82A409D4872
:100B90000078C0F30010C0B2002807D09948407810
:100BA00010F00100002801D000F011F9AC480460F9
:100BB000A6488078A549C97851EA002007003FB2CD
:100BC000A948874201DAA94807003FB243F6184016
:100BD000874202DB43F6F63007003FB2FA2F3CDBD8
:100BE0003FB2402000FB07F002F01EF8A04902F0DF
:100BF00035F802F0B1F810F140085FFA88F8404685
:100C000002F01CF8954902F0C9F88146994800683D
:100C100002F014F8934902F0C1F8494602F02AF9AB
:100C200002F09AF8C0B205004748C08DA84211D022
:100C30004548C58573480078C0F30010C0B200284D
:100C400008D070484078C0F34000C0B2002801D0FE
:100C500000F0CAF88748056046E03FB217F1FA0F86
:100C600042DA5FF0FF3047433FB2402000FB07F01D
:100C700001F0DAFF7E4901F0F1FF01005FF08540ED
:100C800002F03AF902F068F880465FFA88F84046C8
:100C900001F0D4FF714902F081F88146754800687F
:100CA00001F0CCFF6F4902F079F8494602F0E2F812
:100CB00002F052F8C0B205002348C08DA84211D0FE
:100CC0002148C5854F480078C0F30010C0B2002805
:100CD00008D04C484078C0F34000C0B2002801D092
:100CE00000F082F863480560584880795749C9790F
:100CF00051EA002000B24FF4AA7190FBF1F02430C9
:100D0000114981F83400BDE8F18380B54948827803
:100D1000484841784748007802F062F901BD80B543
:100D200044484279434801794248C07802F058F972
:100D300001BD80B53F48427C3E48017C3D48C07BB8
:100D400002F04EF901BD0000101D002080B53948A9
:100D5000027D3848C17C3748807C02F041F901BDF2
:100D600080B53448827B3348417B3248007B02F0B7
:100D700037F901BD80B52F48C27D2E48817D2D48B1
:100D8000407D02F02DF901BD80B53B480078002878
:100D90000ED12848827E2748417E2648007E02F0F8
:100DA0001FF90020234988760120334908700DE09F
:100DB0002048827E1F48417E1E48007E02F010F9C6
:100DC0007F201C49887600202B49087001BD80B522
:100DD000184890F82A20174890F82910154890F8DC
:100DE000280002F0FDF801BD80B51248C28DD2B2D4
:100DF000104890F82C100F4890F82B0002F0F0F8F3
:100E000001BD0000401F0020000C0140881D002093
:100E100000080140281F00206C1E0020A7040008C5
:100E2000781F00204C1F0020481F00203C1F00207E
:100E3000301F0020101D00209C1E0020501F00208D
:100E40001F72000800010020541F0020101F002006
:100E500001C0FFFF22C0FFFF00007A469A99993E29
:100E6000581F00203333333FE9C3FFFF0AC4FFFF9D
:100E700000D86F465C1F0020791F002080B501223A
:100E80000749084802F0C6F80749064802F0DEF8AC
:100E90000649044802F064FB024802F0E4F801BD90
:100EA000040000208817002044000020E8000020F3
:100EB0004C480088401C4B4908804A480088B0F5DF
:100EC000005F02D1002047490880704780B546483E
:100ED000464908605FF4E1304449486000204349D6
:100EE000886000204149C8600020404908610C200A
:100EF0003E49486100203D49886100203B49C86166
:100F00003A4802F0A7FB01223949384802F058FC60
:100F100001BD10B586B004002068334988422BD14A
:100F20003448006850F48020324908603148006835
:100F300010F48020009000984FF48060019002200F
:100F40000290032004900120039001A92A4800F098
:100F5000CDF94FF400600190002002900020039032
:100F600001A9254800F0C2F900220021272002F043
:100F700061FF272002F071FF06B010BD70B50400BC
:100F80000D00002664232A0092B22100174802F0C7
:100F900099FB002803D0761CB6B2C82EF2D170BDE2
:100FA00080B513480078FF2806D11448407850F0E7
:100FB0001000124948700FE00D48007800280BD14E
:100FC0000E48407810F0EF000C4948700B488078CC
:100FD00050F080000949887001220549034802F059
:100FE000EFFB01BD721F002000480040501C002094
:100FF0007A1F00201C100240000C0140401F0020FE
:1010000080B50948006850F040000749086006486C
:10101000006810F0400000900098044804490860FF
:10102000034802F04BFF01BD1410024000300240A3
:10103000201F00207047010280B500221749184880
:1010400002F098FA1749164802F09EFA002002BDF5
:101050000020704703000020704738B504000D00E1
:101060000F4802F0B1FA002032BDF8B504000D00BF
:1010700000260B48D0F81872386D002801D00120E6
:101080000BE02A0092B22100054802F073FA0448EE
:1010900002F080FA06003000C0B2F2BDD01C002081
:1010A00088170020901C0020010000200022100062
:1010B000C0B2162843DA8A4AC0B212EB4012527804
:1010C000002A3AD1864AC0B2430198548A78844BA8
:1010D000C0B213EB40139A700022814BC0B213EBE5
:1010E00040135A608A687E4BC0B213EB40139A607B
:1010F000CA687B4BC0B213EB4013DA600A69784BC5
:10110000C0B213EB40131A614A69754BC0B213EBBE
:1011100040135A618A69724BC0B213EB40139A6153
:10112000CA696F4BC0B213EB4013DA6101226C4BFA
:10113000C0B213EB40135A7001E0401CB8E7C0B2D4
:1011400070470021664A037812EB43125170002168
:10115000634A037812EB43129170704710B5002474
:1011600000200400E4B2162C80F294805C48E4B2C3
:1011700010EB44104078012840F08A805848E4B2CF
:1011800010EB44104068401C5549E4B211EB441187
:1011900048605348E4B210EB44108078012804D032
:1011A00076D3032856D03CD372E04D48E4B210EB1E
:1011B000441040684A49E4B211EB441189688842FE
:1011C0002ED300204649E4B211EB44114860444854
:1011D000E4B210EB4410C06980474148E4B210EB20
:1011E0004410C068401C3E49E4B211EB4411C86091
:1011F0003B48E4B210EB4410C0683949E4B211EB4B
:101200004411096988420BD300203549E4B211EB3F
:10121000441148603248E4B210EB4410FFF791FFEC
:1012200036E02F48E4B210EB441040682C49E4B299
:1012300011EB4411896888420BD300202849E4B29D
:1012400011EB441148602648E4B210EB4410C06929
:1012500080471DE02248E4B210EB4410406820496A
:10126000E4B211EB44114969884211D300201C49B2
:10127000E4B211EB441148601948E4B210EB441099
:10128000C06980471648E4B210EB4410FFF759FFDD
:10129000641C67E710BD002000210800C0B21628BA
:1012A0001DDA0F49C0B211EB401189780D4AC0B266
:1012B00081540B49C0B211EB401149780A4AC0B2BF
:1012C00081540421064AC0B212EB401291700221EF
:1012D000034AC0B212EB40125170401CDEE7704767
:1012E000E8140020CC1E0020E41E00202DE9F84167
:1012F00000230024002500265FF0000E5FF0000CA4
:101300006246102A80F04D815FF0010C1CFA02FC4D
:101310006346D1F800C013EA0C0C64469C4240F0CE
:101320003E81D1F804C0BCF1000F3DD0BCF1010FEB
:1013300024D0BCF1020F2BD0BCF1030F4CD0BCF178
:10134000110F1FD0BCF1120F28D0DFF89082C445D6
:101350002AD0DFF88C82C44526D0DFF88882C445C5
:1013600022D0DFF88482C4451ED0DFF88082C445D5
:101370001AD0DFF87C82C44516D031E0D1F80CC019
:1013800066462DE0D1F80CC01CF1040C664627E03F
:10139000D1F80CC01CF1080C664621E0D1F80CC055
:1013A0001CF10C0C66461BE0D1F808C0BCF1000F24
:1013B00003D15FF0040C66460DE0D1F808C0BCF123
:1013C000010F04D15FF0080C6646036103E05FF093
:1013D000080C6646436103E05FF0000C6646FFE7D9
:1013E000FF2C01D8070000E0071DFF2C02D85FEAA0
:1013F000820E03E0B2F1080C5FEA8C0ED7F800C051
:101400005FF00F0818FA0EF83CEA080C16FA0EF80E
:1014100058EA0C0CC7F800C0D1F804C05FEACC0C45
:1014200040F1BD80DFF8CCC1DCF800C05CF0010CFD
:10143000DFF8C081C8F800C0DFF8B8C1DCF800C030
:101440001CF00108CDF80080DDF800C0DFF8A8C16D
:101450005FEA92085CF828C065465FF00F0C12F056
:1014600003085FFA88F85FEA88081CFA08FC35EA86
:101470000C05DFF888C1604502D15FF0000C16E072
:10148000DFF87CC1604502D15FF0010C0FE0DFF8AE
:1014900074C1604502D15FF0020C08E0DFF868C15A
:1014A000604502D15FF0030C01E05FF0040C12F024
:1014B00003085FFA88F85FEA88081CFA08FC5CEA0F
:1014C0000505DFF834C15FEA92084CF82850D1F8DE
:1014D00004C05FEACC3C0AD5DFF830C1DCF800C0BC
:1014E00054EA0C0CDFF82481C8F800C009E0DFF8EA
:1014F0001CC1DCF800C03CEA040CDFF81081C8F81D
:1015000000C0D1F804C05FEA8C3C0AD5DFF800C106
:10151000DCF800C054EA0C0CDFF8F480C8F800C016
:1015200009E0DFF8ECC0DCF800C03CEA040CDFF8AE
:10153000E080C8F800C0D1F804C05FEACC2C0AD51E
:10154000DFF8D0C0DCF800C054EA0C0CDFF8C4802F
:10155000C8F800C009E0DFF8BCC0DCF800C03CEA15
:10156000040CDFF8B080C8F800C0D1F804C05FEA0E
:101570008C2C0AD5DFF8A0C0DCF800C054EA0C0CB3
:10158000DFF89480C8F800C009E0DFF88CC0DCF810
:1015900000C03CEA040CDFF88080C8F800C0521C90
:1015A000AFE6BDE8F1810200936889B20B4202D038
:1015B0000123180001E000231800C0B27047D2B226
:1015C000002A02D089B2016102E089B20B040361F2
:1015D0007047C26889B24A40C2607047000011106B
:1015E0000000121000002110000022100000311035
:1015F00000003210181002400800014000080140AD
:10160000000C0140001001400014014000040140A2
:1016100004040140080401400C04014000B58DB0F1
:101620002A48006850F004002849086027480068EC
:1016300010F004000090009825482649086040F208
:10164000DF10244948600020224988604FF47A70F6
:101650002049C86000201F4908611E4800F03EF87C
:101660004FF48050089008A91A4800F02CFA602026
:10167000019000200290002003900020059000229D
:1016800001A9144800F09FF9124800F00EF800225A
:1016900000211E2002F0CEFB1E2002F0DEFB002106
:1016A0000C4800F038F80DB000BD1FB504002068EC
:1016B0000749884209D14020009002200190032070
:1016C000039069460448FFF711FE1FBD1C1002403D
:1016D00000080040881D0020000C014010B50400E7
:1016E000002C01D1012014E094F83900002805D124
:1016F000002084F83800200000F00CF8022084F864
:101700003900211D206800F071FA012084F83900A9
:10171000002010BD704738B504000D0028000028D7
:1017200006D004280BD0082810D00C2815D01BE0B8
:101730002068C06850F002002168C86014E020688A
:10174000C06850F004002168C8600DE02068C068DF
:1017500050F008002168C86006E02068C06850F0BA
:1017600010002168C860FFE701222900206800F00E
:1017700085FB2068DFF8D410884205D12068406CD2
:1017800050F40040216848642068006850F001006F
:1017900021680860002032BD38B504000D00280023
:1017A000002806D004280BD0082810D00C2815D00B
:1017B0001BE02068C06830F002002168C86014E0B7
:1017C0002068C06830F004002168C8600DE020681F
:1017D000C06830F008002168C86006E02068C06872
:1017E00030F010002168C860FFE70022290020685F
:1017F00000F044FB2068DFF85410884211D12068C3
:10180000006A41F2111108420BD12068006A40F2CF
:101810004441084205D12068406C30F40040216802
:1018200048642068006A41F2111108420BD1206817
:10183000006A40F24441084205D12068006840082F
:10184000400021680860002032BD0000002C0140EB
:1018500010B504002068006980071AD52068C068A8
:10186000800716D57FF002002168086101202076EC
:101870002068806910F0030F03D0200000F0B4F955
:1018800005E0200000F0AFF9200002F061FC00202C
:1018900020762068006940071AD52068C068400794
:1018A00016D57FF0040021680861022020762068A8
:1018B000806910F4407F03D0200000F095F905E026
:1018C000200000F090F9200002F042FC0020207679
:1018D0002068006900071AD52068C068000716D57F
:1018E0007FF0080021680861042020762068C06924
:1018F00010F0030F03D0200000F076F905E020007F
:1019000000F071F9200002F023FC0020207620680E
:101910000069C0061AD52068C068C00616D57FF0D9
:10192000100021680861082020762068C06910F442
:10193000407F03D0200000F057F905E0200000F0C0
:1019400052F9200002F004FC002020762068006993
:10195000C0070AD52068C068C00706D57FF001001F
:1019600021680861200000F03DF920680069000648
:101970000AD52068C068000606D57FF0800021687F
:101980000861200002F091FD2068006940060AD538
:101990002068C068400606D57FF0400021680861D5
:1019A000200000F022F92068006980060AD520682E
:1019B000C068800606D57FF02000216808612000FD
:1019C00002F072FD10BD70B504000D00160094F811
:1019D0003800012801D1022074E0012084F8380089
:1019E000022084F839003000002806D004281BD0DB
:1019F000082831D00C2846D05DE02900206800F08E
:101A000025F92068806950F0080021688861206805
:101A1000806930F004002168886120688069296944
:101A200008432168886146E02900206800F041F9F8
:101A30002068806950F400602168886120688069AE
:101A400030F480602168886120688069296950EAE3
:101A50000120216888612EE02900206800F061F9EA
:101A60002068C06950F008002168C8612068C0691A
:101A700030F004002168C8612068C0692969084302
:101A80002168C86117E02900206800F081F920680A
:101A9000C06950F400602168C8612068C06930F4F2
:101AA00080602168C8612068C069296950EA012006
:101AB0002168C861FFE7012084F83900002084F81C
:101AC0003800002070BD70B504000D00002694F8A9
:101AD0003800012801D1022083E0012084F8380079
:101AE000022084F8390020688068060036F0770606
:101AF00036F47F46206886602868002856D0102873
:101B000059D020285CD030285FD0402844D05028BD
:101B10002ED0602836D070280DD0B0F5805F03D06D
:101B2000B0F5005F17D055E020688068C008C0009D
:101B3000216888604EE0EB686A68A968206800F058
:101B40008FF920688068060036F0770656F0770631
:101B5000206886603EE0EB686A68A968206800F04B
:101B60007FF92068806850F480402168886031E007
:101B7000EA686968206800F03BF95021206800F0AD
:101B800064F927E0EA686968206800F047F9602195
:101B9000206800F05AF91DE0EA686968206800F0E2
:101BA00027F94021206800F050F913E00021206857
:101BB00000F04BF90EE01021206800F046F909E032
:101BC0002021206800F041F904E03021206800F075
:101BD0003CF9FFE7012084F83900002084F8380040
:101BE000002070BD7047704770477047002203683F
:101BF0001A007C4B984208D0B0F1804F05D07A4B48
:101C0000984202D0794B984203D132F070024B686F
:101C10001A43744B984208D0B0F1804F05D0724BF4
:101C2000984202D0714B984203D132F44072CB6893
:101C30001A4302608B68C3620B688362694B9842E7
:101C400001D10B69036301234361704730B4002362
:101C500000240022056A6D086D000562056A2C00EB
:101C600045682A0085692B0033F070039B089B00B0
:101C70000D682B4334F002048D682C43594DA84263
:101C800005D134F00804CD682C4334F00404554DDC
:101C9000A84207D132F4807232F400724D692A43AF
:101CA0008D692A43426083614D684563046230BC9C
:101CB000704730B4002300240022056A35F0100577
:101CC0000562056A2C0045682A0085692B0033F4FB
:101CD000E04333F440730D6853EA052334F02004E5
:101CE0008D6854EA05143F4DA84206D134F08004B3
:101CF000CD6854EA051434F040043A4DA84209D1A5
:101D000032F4806232F400624D6952EA85028D69D4
:101D100052EA8502426083614D688563046230BC8B
:101D2000704730B4002300240022056A35F4807522
:101D30000562056A2C0045682A00C5692B0033F04E
:101D400070039B089B000D682B4334F400748D686E
:101D500054EA0524234DA84206D134F40064CD682A
:101D600054EA052434F480641E4DA84209D132F4AB
:101D7000805232F400524D6952EA05128D6952EADE
:101D800005124260C3614D68C563046230BC704790
:101D900030B4002200230024056A35F48055056222
:101DA000056A2B0045682C00C5692A0032F4E04220
:101DB00032F440720D6852EA052233F400538D6804
:101DC00053EA0533074DA84204D134F480444D69E9
:101DD00054EA85144460C2614D680564036230BCF6
:101DE00070470000002C0140000400400008004043
:101DF00030B400230024056A2C00056A6D086D00CC
:101E0000056285692B0033F0F00353EA021334F0C6
:101E10000A040C438361046230BC704730B4002371
:101E20000024056A35F01005056285692B00056AF6
:101E30002C0033F4704353EA023334F0A00454EA24
:101E400001148361046230BC7047002283681A0069
:101E500032F0700289B251F007031A438260704772
:101E600030B4002485682C0034F47F4452EA010524
:101E700055EA03252C43846030BC704730B40023FE
:101E800001248C402300046A9C430462046A12FA11
:101E900001F52C43046230BC7047000080B51C483B
:101EA000006850F010001A490860032001F0BCFFE0
:101EB000002000F004F802F0D9FB002002BD10B5AC
:101EC000040003F0EEF84FF47A71B0FBF1F001F08A
:101ED000CBFF002221005FF0FF3001F0ABFF0020BC
:101EE00010BD0C480068401C0A490860704709484A
:101EF0000068704711B581B00024FFF7F8FF0400B7
:101F0000FFF7F5FF001B01998842F9D313BD0000CC
:101F100000200240601F00202DE9F0410400002550
:101F20005FF0000800270026002C01D10120A8E066
:101F3000A068002801D060690028A06A002807D1A5
:101F40000020E062002084F82400200000F09BF8CC
:101F5000200000F0BDFB0500A06AC00600F18980EA
:101F6000EDB2002D40F08580A06A30F4885050F02A
:101F70000200A0625FF08040B0FA80F06168E26920
:101F80001143E26812FA00F008430743A068B0F575
:101F9000807F02D0A068012802D14FF4807000E059
:101FA000002050EA08086069012817D1E06800287D
:101FB0000CD15FF4E020B0FA80F0A169491E11FA5B
:101FC00000F050F4006050EA080807E0A06A50F002
:101FD0002000A062E06A50F00100E06220684068E2
:101FE00030F4694058EA0000216848602068806841
:101FF000DFF8BC160840384321688860A068B0F557
:10200000807F02D0A068012802D14FF4807000E0E8
:102010000020B0F5807F08D14FF47060B0FA80F0F6
:102020002169491E11FA00F006002068C06A30F4E8
:10203000700030432168C86220688068DFF8741639
:102040000840B84208D10020E062A06A30F00200E7
:1020500050F00100A06212E0A06A30F0020050F0DF
:102060001000A062E06A50F00100E062012005006B
:1020700005E0A06A50F01000A062012005002800D1
:10208000C0B2BDE8F081704738B50400002594F86F
:102090002400012801D1022092E0012084F82400CC
:1020A000200000F0CCFA0500EDB2002D40F0838056
:1020B000A06ADFF81416084050F48070A06220680F
:1020C000DFF8F415884209D1DFF8F005006810F454
:1020D000702F01D1012002E0002000E00120002843
:1020E0000ED0A06A30F48010A062206840684005DD
:1020F00023D5A06A30F4005050F48050A0621CE058
:10210000A06A50F48010A0622068DFF8B4158842FD
:1021100004D02068DFF8A015884205D1DFF89C05BF
:10212000006810F4806000E00020002805D0A06A5C
:1021300030F4005050F48050A062A06AC00404D56E
:10214000E06A30F00600E06201E00020E06200207A
:1021500084F824007FF0020021680860206840684D
:1021600050F02000216848602068806810F46020EA
:10217000B0F5602F18D12068DFF83C15884209D1EE
:10218000DFF83805006810F4702F01D1012002E05B
:10219000002000E00120002806D02068806850F46C
:1021A000A0002168886009E02068806850F48010F1
:1021B0002168886002E0002084F824002800C0B272
:1021C00032BDF8B504000D00160000272068DFF8C6
:1021D000F014884204D02068DFF8DC14884205D16E
:1021E000DFF8D804006810F4702000E00020002818
:1021F00040F09A8094F82400012801D1022097E051
:10220000012084F82400200000F019FA0700FFB232
:10221000002F40F08580A06ADFF8AC14084050F42D
:102220008070A0622068DFF89014884209D1DFF83E
:102230008C04006810F4702F01D1012002E000200E
:1022400000E0012000280ED0A06A30F48010A062C7
:1022500020684068400523D5A06A30F4005050F44F
:102260008050A0621CE0A06A50F48010A062206838
:10227000DFF84C14884204D02068DFF83C14884210
:1022800005D1DFF83804006810F4806000E0002019
:10229000002805D0A06A30F4005050F48050A062AD
:1022A000A06AC00404D5E06A30F00600E06201E0F4
:1022B0000020E062002084F824000FF26140216ACF
:1022C00088620FF2AD40216AC8620FF2B540216A00
:1022D00008637FF00200216808602068806850F47D
:1022E00080702168886033002A00206810F14C015A
:1022F000206A02F047FF2068806810F46020B0F583
:10230000602F06D12068806850F4A00021688860A2
:102310000CE02068806850F480102168886005E037
:10232000002084F8240001E0012007003800C0B23A
:10233000F2BD38B50400002594F82400012801D12D
:10234000022026E0012084F82400200000F0C0F9DB
:102350000500EDB2002D17D12068806830F4807040
:1023600021688860206A02F044FF0500EDB2002D6C
:1023700006D1A06A30F4885050F00100A06203E05A
:10238000A06A50F04000A062002084F824002800D9
:10239000C0B232BD0068C06C704710B50400206840
:1023A000406880062CD520680068800728D5A06A80
:1023B000C00603D4A06A50F40070A0622068806850
:1023C00010F46020B0F5602F13D1E068002810D120
:1023D0002068406830F0200021684860A06A30F42E
:1023E0008070A062A06AC00403D4A06A50F001000B
:1023F000A062200001F073FE7FF0120021680860E7
:1024000020684068000637D520680068400733D54B
:10241000A06AC00603D4A06A50F40050A0622068ED
:10242000806810F4E040B0F5E04F0DD020684068BF
:1024300040051AD42068806810F46020B0F5602F41
:1024400013D1E068002810D12068406830F0800087
:1024500021684860A06A30F48050A062A06AC0057C
:1024600003D4A06A50F00100A062200003F06CF8D1
:102470007FF00C00216808602068406840060ED597
:1024800020680068C0070AD5A06A50F48030A062B6
:10249000200000F006F87FF001002168086010BD00
:1024A000704770477047F8B4020000230020009086
:1024B00092F82400012801D10220BEE0012082F818
:1024C0002400486807281AD21068446B5FF0F8604F
:1024D000B0FA80F55FF0F860B0FA80F01F264F6820
:1024E0007F1E7D4316FA05F5AC430D684E68761ED7
:1024F000704315FA00F020431468606337E04868C1
:102500000D281AD21068046B5FF0F860B0FA80F5FD
:102510005FF0F860B0FA80F01F264F68FF1F7D4320
:1025200016FA05F5AC430D684E68F61F704315FAB0
:1025300000F020431468206319E01068C46A5FF05B
:10254000F860B0FA80F55FF0F860B0FA80F01F260E
:102550004F680D3F7D4316FA05F5AC430D684E6894
:102560000D3E704315FA00F020431468E0620868DD
:102570000A281AD31068C4685FF0E050B0FA80F5FA
:102580005FF0E050B0FA80F007260F680A3F7D4305
:1025900016FA05F5AC438D680E680A3E704315FACD
:1025A00000F020431468E06016E0106800695FF0F6
:1025B000E054B4FA84F45FF0E055B5FA85F50726E7
:1025C0000F687C4316FA04F4A0438C680E687543C8
:1025D000AC402043146820610868102802D00868C5
:1025E000112825D11068364CA0421BD11068806894
:1025F00000021DD41068806850F400001468A060C8
:102600000868102814D12F480068304CB0FBF4F053
:102610000A24604300900098002809D00098401ECA
:102620000090F8E7906A50F02000906201200300CB
:10263000002082F824001800C0B2F2BC704738B500
:10264000040000250020009020688068C0072BD47B
:102650002068806850F0010021688860194800688F
:102660001A49B0FBF1F000900098002803D00098C0
:10267000401E0090F8E7FFF73AFC050020688068EC
:10268000C00711D4FFF733FC401B0328F6D3A06A20
:1026900050F01000A062E06A50F00100E0620020FB
:1026A00084F82400012000E0002032BD000000007A
:1026B000FDF7E1FFFE0E1FFF00280140042401404A
:1026C0000024014000000020FEF1FFFF40420F0007
:1026D00038B50400002520688068C0071BD5206835
:1026E00080684008400021688860FFF700FC050012
:1026F00020688068C0070ED5FFF7F9FB401B032850
:10270000F6D3A06A50F01000A062E06A50F0010019
:10271000E062012000E0002032BD000038B5040076
:10272000656AA86A10F0500F1CD1A86A50F40070B6
:10273000A8622868806810F46020B0F5602F0DD181
:10274000E86800280AD1A86A30F48070A862A86AF4
:10275000C00403D4A86A50F00100A862280001F068
:10276000BEFC03E02000296A096B884731BD0000E8
:1027700038B50400656A2800FFF792FE31BD0000FD
:1027800038B50400656AA86A50F04000A862E86A9B
:1027900050F00400E8622800FFF784FE31BD00001D
:1027A000002202F0D3BE000010B582B00024002049
:1027B000ADF8000000F085F80A20FFF79BFB00F061
:1027C0003EF86B208DF8000003208DF801000221F7
:1027D000684600F0E7F8032000F0C9F919208DF8E9
:1027E00000000F208DF801000221684600F0DAF8A1
:1027F000032000F036F8002000F04BF8372000F0FE
:10280000DEF8040037208DF8000054F010008DF839
:1028100001000221684600F0C5F8002000F0C1F96F
:1028200068208DF8000007208DF80100022168461D
:1028300000F0B8F800F0DBF800F0CEF913BD80B579
:102840000020ADF800006B208DF8000080208DF88E
:1028500001000221684600F0A5F80A20FFF74AFBB4
:1028600001BD38B5040000250020ADF800001B2094
:1028700000F0A5F805001B208DF8000015F0E7001A
:1028800050EAC4008DF801000221684600F08AF881
:1028900031BD38B5040000250020ADF800001C2033
:1028A00000F08DF805001C208DF8000015F0E70001
:1028B00050EAC4008DF801000221684600F072F869
:1028C00031BD80B5DFF82003DFF820130860DFF8A2
:1028D0002003DFF8181348600020DFF81013886029
:1028E0000020DFF80813C8604FF48040DFF8FC12C6
:1028F00008610020DFF8F41248610020BB498861BC
:102900000020BA49C8610020B8490862B74802F0FF
:1029100037FE00220021202001F08CFA202001F057
:102920009CFA01BD10B586B004002068AE4988420B
:1029300036D1B048006850F00800AE490860AD4894
:10294000006810F00800009000984FF4407001906B
:1029500012200290002003900120049001A9A648B3
:10296000FEF7C4FCA548006850F00200A3490860C7
:10297000A348006850F40010A1490860A04800680E
:1029800010F40010009000989E48006850F4001069
:102990009C4908609B48006830F400109949086021
:1029A00006B010BD38B504000D00052000902B00C6
:1029B0009BB22200D0218D4802F03EFE31BD01B510
:1029C00082B000208DF8040005200090012302AAA7
:1029D000D021864802F030FE05200090012301AA94
:1029E000D121824802F0C8FE9DF804000EBD00B55A
:1029F00085B08548006850F001008349086082482E
:102A0000006810F0010000900098002200211020C2
:102A100001F010FA102001F020FA0022002111200C
:102A200001F008FA112001F018FA4FF440700190FB
:102A3000122002900320049001A96F48FEF756FC73
:102A40006E48006850F002006C4908606C480068ED
:102A500050F400106A4908606948006810F40010DA
:102A6000009000986748006850F4001065490860BD
:102A70006448006830F400106249086063486449A3
:102A80000860102062494860002061498860802009
:102A90005F49C86000205E49086100205C494861C8
:102AA00000205B49886100205949C861584802F0FC
:102AB0003DFB57484D49C8624C4855494862554806
:102AC00055490860002054494860002052498860F8
:102AD00080205149C86000204F49086100204E49BC
:102AE000486100204C49886100204B49C8614A4830
:102AF00002F01CFB48483D4908633C48464948628F
:102B000039483A4908604548384948604FF48040A0
:102B10003649886000203549C8604FF48040334909
:102B20000861002031494861002030498861002057
:102B30002E49C86100202D4908622C4802F020FD72
:102B400005B000BD32B582B0040015000A20009027
:102B5000012302AAD021254802F06EFDEDB22B0020
:102B60009BB22200D121214802F02FFF37BD38B59A
:102B70000400E4B2072C13DA00250020ADF80000B1
:102B80001A20FFF71CFF05001A208DF8000015F031
:102B9000F80020438DF8010002216846FFF702FF8C
:102BA00031BD38B50400E4B2082C14DA0025002049
:102BB000ADF800001A20FFF702FF05001A208DF87B
:102BC000000015F0C70050EAC4008DF80100022192
:102BD0006846FFF7E7FE31BD4FF4FA601049088000
:102BE0000220104908807047005400404C1D00200E
:102BF000A086010018100240000C014004000140B2
:102C00001C10024010100240141002406C000240E0
:102C1000FC1D002080000240341E0020801A0600A7
:102C2000761F0020741F0020002840F10980F44620
:102C3000404200F005F850F000406047002800BF17
:102C40000AD0B0FA80F18840D1F19D01C905020691
:102C500072F1004241EB10207047000010B5FF23D5
:102C600013EAD0541DBF13EAD1529C429A4239E074
:102C7000A41ADA0780EA0103134042EA012142EA7A
:102C80000020421A3CBF641E01EB4202090AB2FB5B
:102C9000F1FE01FB1E221202B2FBF1F001FB102239
:102CA0006EF30F201202B2FBF1FE4EEA00207F34D9
:102CB00006DDFE2C24DA53EA500050EBC45010BD60
:102CC000D4F1020401FB1E2240F08071192C1DDC9E
:102CD00021FA04F0C4F12004A140114371F1004233
:102CE000584110BD9C421ABF03EAD1529A420FE0EC
:102CF00080EA010E0EF00043400004D0490016D1D6
:102D000043F0FF4010BD490008BFD343180010BD79
:102D10009C4205D1D21AF7D001F00041484010BDC5
:102D20004A0212BF0846484000F0004010BD4AB9B0
:102D30000902B1FA81F2914044B1A418C00140F0F7
:102D400000409EE7C90141F0004152420002B0FA42
:102D500080F4A040141B94E74100090E7F3915D47C
:102D6000D1F11F0114D4400007D2C00140F000404F
:102D7000C84048BF6FF000407047C00140F00040BD
:102D8000C8404CBF4FF000404042704700207047A1
:102D900000424FF0004058BFC0437047FF2212EA84
:102DA000D05C1DBF12EAD153944593422BE09C4462
:102DB000D30780EA01021A4043EA002043EA0121D6
:102DC000A1FB0030410038BF40007CF17F010BDBEC
:102DD000FE294ADA5B0842EAC15153EA006373F103
:102DE000004C51EB10207047D1F1080CDCF12001B0
:102DF0002FDB5B0810FA01F10B4373F1004120FA5D
:102E00000CF05041704794451CBF02EAD1539342E5
:102E100080EA010202F000421DD0400019D04900B2
:102E200017D05BB9634514D00902B1FA81F3994018
:102E3000BCEB030CC00140F00040C1E70002B0FA57
:102E400080FC10FA0CF0B3EB0C0CC90141F000410E
:102E5000B6E71000704740000AD0490008D010F1D2
:102E6000807F94BF11F1807F02E042F0FF40704705
:102E7000D043704790EA010F44BF81F0004100F059
:102E800043B800BF421A3CBF801A89184FF0004C6B
:102E9000C0F3C752FF2A24D0C1F3C75313B3D21AC9
:102EA000D2F1190327DD4CEA01214CFA03F321EAA0
:102EB0000303D140C20D4CEA0020401834BF20EA81
:102EC0000C004CEA5000D20553EA006373EB0C0C83
:102ED00052EB1020420012F1807F38BF7047C00DC6
:102EE000C0057047490212BF9A4200EB5120F8E733
:102EF000D2F11703D9D5704790EA010F44BF81F092
:102F00000041FFF7BFBF00BF431A4FF000423EBF72
:102F10005340C01AC91800BFD3095FEAD05C13EB55
:102F2000400F34BFB3EB410F40E07CEBD1530CD3E7
:102F300042EA012122D8D1EB402009D3400A28BF20
:102F40005FEA500140EBCC507047401A15D0400268
:102F5000B0FA80F2521C9040400A4FEA3C23B3EB97
:102F6000026384BF00EB730007E040F400001A1610
:102F7000DB07C2F10102D04018437047182BFCDC7C
:102F800031FA03F202FA03F3591A38BF42F0010290
:102F9000D2EB40203CBF4000ACF1010C5FEACC5CBE
:102FA000C20572F100414CEB5020704713EB400F0B
:102FB0000FD24B0009D0ACEBD153022B03DB4902FB
:102FC000172BDDDD70479143401A4300D5D1002017
:102FD000704713EB410FD0D36FF000007047000033
:102FE00070B582B004000D00160068460021016033
:102FF00054F0B0008DF800008DF801508DF802609B
:1030000000208DF803006946014803F0DCF873BD29
:103010000805002070B504000D001600002C01D139
:10302000022012E0D4F81402002802D00020C4F8D4
:103030001402002D01D0C4F81052012084F8FC01C4
:103040002670200003F0C4F9002070BD02000020AB
:10305000002904D0C2F814120023180001E0022352
:103060001800C0B2704710B50400200003F006FA43
:10307000002010BD01000020704770B504000D0055
:103080000226D4F8140200280AD02900C9B2200070
:10309000D4F8142212689047002801D100200600BD
:1030A0003000C0B270BD38B504000D002900C9B2AF
:1030B0002000D4F8142252689047002032BD38B561
:1030C00004000D00290014F5027003F04DFE0120EC
:1030D000C4F8F401B4F80E02C4F8F80194F8080238
:1030E00010F01F00C0B2002803D002280DD006D374
:1030F00011E014F50271200003F050FB12E014F50A
:103100000271200003F088FB0CE014F5027120002E
:1031100003F0A8FB06E094F8080210F080012000FC
:1031200003F029FA002032BDF8B504000D001600A6
:10313000EDB2002D2DD114F582700700D4F8F40102
:10314000032836D1F868B968884210D2B868F9689F
:10315000401AB860B868F968884201D2BA6800E0DD
:10316000FA6892B23100200003F082FE21E0D4F828
:1031700014020069002808D094F8FC01032804D147
:103180002000D4F8141209698847200003F07DFE5E
:103190000FE0D4F81402806900280AD094F8FC01EA
:1031A000032806D12900C9B22000D4F8142292695C
:1031B00090470020F2BDF8B504000D001600EDB2F6
:1031C000002D57D114F114000700D4F8F40102289F
:1031D00045D1F868B968884210D2B868F968401AD1
:1031E000B860BA6892B23100200003F01EFE0023DE
:1031F00000220021200003F079FA30E07868F968B5
:10320000B0FBF1F201FB1200002817D17868F968D1
:10321000884213D37868D4F8F81188420ED200227D
:103220000021200003F001FE0020C4F8F801002373
:1032300000220021200003F059FA10E0D4F8140213
:10324000C068002808D094F8FC01032804D12000AD
:10325000D4F81412C9688847200003F023FE94F8BC
:103260000002012816D12000FFF704FF002084F897
:1032700000020FE0D4F81402406900280AD094F844
:10328000FC01032806D12900C9B22000D4F8142279
:10329000526990470020F2BD10B50400402300227F
:1032A0000021200003F00DF94020C4F81001402354
:1032B00000228021200003F004F940202062012038
:1032C00084F8FC01D4F81802002806D06168C9B25D
:1032D0002000D4F8142252689047002010BD02004C
:1032E000117400207047010091F8FC0181F8FD0184
:1032F000042081F8FC0100207047010091F8FD01D5
:1033000081F8FC010020704710B5040094F8FC011E
:10331000032809D1D4F81402C069002804D0200081
:10332000D4F81412C9698847002010BDF8B504000C
:103330000D000026402302228121200003F0C1F865
:10334000402302220121200003F0BBF8A02003F05B
:103350000AFAC4F81802D4F81802002802D1022090
:10336000060013E0D4F8180207000020C7F89C00FC
:10337000D4F81C020068804700203865002078657A
:1033800040233A6C0121200003F0B0F93000C0B2B4
:10339000F2BD70B504000D0000268121200003F06D
:1033A000C4F80121200003F0C0F8D4F81802002866
:1033B0000AD0D4F81C0240688047D4F8180203F001
:1033C000E1F90020C4F818023000C0B270BD2DE948
:1033D000F84304000D00D4F818625FF00009287863
:1033E00010F06000C0B2002817D020284CD16878B7
:1033F000012806D0812809D12900200000F0F6F824
:103400000AE02900200000F00AF905E02900200068
:1034100003F0BEFC0220814636E06878062804D01E
:103420000A2817D00B281CD027E0688880B2000A31
:1034300080B221280DD147488046E8880A2801DB60
:10344000092700E0EF883A0092B24146200003F0DD
:10345000D8FC18E0012216F19C01200003F0D1FCF9
:1034600011E0A878032803DAA878C6F89C0003E0E6
:103470002900200003F08CFC05E02900200003F067
:1034800087FC02208146FFE74846C0B2BDE8F283D0
:103490000200D2F81832D2F81802002803D0002017
:1034A0001865002000E00220704770B504000D0090
:1034B000D4F81862EDB2012D18D12900C9B220004C
:1034C00003F047F9B064D4F81802002806D016F1CA
:1034D0004801306CD4F81C22D26890474023326CEB
:1034E0000121200003F002F9002000E0022070BD5D
:1034F00001000020704702000020704702000020F9
:10350000704701000020704738B50400D4F8185205
:10351000D4F81C02002810D095F8580000280CD0D0
:1035200095F8992092B2290095F85800D4F81C32E9
:103530009B689847002085F85800002032BD0100A4
:10354000652008800448704701000A20088003486D
:10355000704700009200002080000020380000200A
:1035600002000220002903D0C2F81C120023180018
:10357000C0B2704710B40300D3F81842616492B22D
:10358000E264002010BC70470200D2F818321964BF
:103590000020704738B50400D4F81852D4F8180247
:1035A00000280FD0286D00280AD101202865EB6C77
:1035B0009BB26A6C8121200003F065F8002002E0D4
:1035C000012000E0022032BD38B50400D4F81852C2
:1035D000D4F81802002807D040232A6C01212000CB
:1035E00003F084F8002000E0022032BD2DE9F8430A
:1035F00004000D00D4F81802060040275FF0000810
:1036000016F1590942463900484603F059FCEA8848
:1036100016F15901200003F0F4FBBDE8F18370B509
:1036200004000D00D4F818020600E888002810D025
:10363000EA8816F15901200003F004FC012086F805
:103640005800E88886F89900A88880B2000A86F8B1
:103650009A0070BD10B50400002C01D1012030E0AB
:10366000A0690028FFD194F83900002805D1002076
:1036700084F838002000FDF74CFC022084F8390063
:103680002068C06830F400502168C860200000F055
:1036900092FA2068006930F490402168086120683F
:1036A000406930F02A00216848612068C06850F401
:1036B00000502168C8600020E063012084F83900D0
:1036C000002010BD2DE9F84304000D0016001F0076
:1036D0005FF0000994F839008146B9F1010F02D07A
:1036E000B9F1220F69D1002D02D0B6B2002E01D15E
:1036F000012063E094F83800012801D102205DE048
:10370000012084F838000020E06394F83900222872
:1037100003D1322084F8390002E0122084F8390005
:10372000A684E684E08C00282DD0E08C401EE08446
:10373000A068B0F5805F17D13B00002280212000F7
:1037400000F011F9002801D0032037E0A846B8F8AE
:103750000000C005C00D216848602069002801D123
:10376000AD1CDFE76D1CDDE73B000022802120005F
:1037700000F0F9F8002801D003201FE02878216824
:1037800048606D1CCEE73B0000224021200000F085
:10379000EAF8002801D0032010E094F8390032281C
:1037A00003D1222084F8390002E0012084F8390096
:1037B000002084F83800002000E00220BDE8F283F9
:1037C00030B40300002493F839000400012C01D028
:1037D000122C36D1002902D092B2002A01D1012048
:1037E00030E093F83800012801D102202AE00120BE
:1037F00083F8380099629A85DA850020D86393F8B7
:103800003900122803D1322083F8390002E0222047
:1038100083F83900002083F838001868C06850F435
:1038200080701D68E8601868406950F001001D68EC
:1038300068611868C06850F020001D68E8600020CA
:1038400000E0022030BC704770B582B00400002553
:1038500000262068006810F0010005002068C0689C
:1038600010F480700600002D05D0002E03D0E06B10
:1038700050F00100E06320680068400810F001008B
:1038800005002068406910F001000600002D05D0F9
:10389000002E03D0E06B50F00400E0632068006865
:1038A000800810F001000500002D05D0002E03D087
:1038B000E06B50F00200E06320680068C00810F080
:1038C00001000500002D05D0002E03D0E06B50F064
:1038D0000800E06320680068400910F0010005005E
:1038E0002068C06810F020000600002D04D0002ED3
:1038F00002D0200000F0FDF820680068C00910F038
:10390000010005002068C06810F080000600002D4E
:1039100004D0002E02D0200000F096F82068006845
:10392000800910F0010005002068C06810F0400018
:103930000600002D04D0002E02D0200000F0C1F8B7
:10394000E06B00280CD02068006800902068406878
:1039500000900098012084F83900200000F002F85F
:1039600073BD704770472DE9F04104000D0016004B
:103970001F005FF00008FEF7BAFA8046F6B2002E8C
:103980002FD1206800682840A8425AD017F1010FB3
:10399000F7D0002F05D0FEF7AAFAB0EB0800874257
:1039A000EFD22068C06830F080002168C8602068CD
:1039B000C06830F020002168C8602068C06830F41A
:1039C00080702168C8602068406940084000216814
:1039D0004861012084F83900002084F83800032071
:1039E00030E0206800682840A8422AD117F1010F72
:1039F000F7D0002F05D0FEF77AFAB0EB0800874227
:103A0000EFD22068C06830F080002168C86020686C
:103A1000C06830F020002168C8602068C06830F4B9
:103A200080702168C86020684069400840002168B3
:103A30004861012084F83900002084F83800032010
:103A400000E00020BDE8F08110B40100002391F8EF
:103A500039000300122B01D0322B2FD18868B0F52A
:103A6000805F11D1086A02001088C005C00D0C6883
:103A700060600869002803D1086A801C086209E0B8
:103A8000086A401C086205E0086A441C0C62007861
:103A90000C686060C88C401EC884C88C00280BD19C
:103AA0000868C06830F080000C68E0600868C06892
:103AB00050F040000C68E060002000E0022010BCE4
:103AC000704710B504002068C06830F040002168DD
:103AD000C86094F83900322803D1222084F83900D4
:103AE00002E0012084F839002000FFF73AFF0020AF
:103AF00010BD70B50400002694F839000600222E8F
:103B000001D0322E55D1A068B0F5805F15D1A06AE2
:103B100005002069002808D120684068C005C00D54
:103B20002880A06A801CA06219E020684068C0B2AA
:103B30002880A06A401CA06211E02069002806D1FC
:103B4000A06A411CA16221684968017007E0A06A6F
:103B5000411CA1622168496811F07F010170E08D6C
:103B6000401EE085E08D002821D12068C06830F03B
:103B700020002168C86094F83900322803D112204F
:103B800084F839000EE02068C06830F48070216845
:103B9000C8602068406940084000216848610120F1
:103BA00084F83900200000F0C9FA002002E000206B
:103BB00000E0022070BD2DE9F843040000252068D4
:103BC000006930F44050E168084321680861A0684A
:103BD000216908436169084305002068C0685C49A1
:103BE000084028432168C8602068406930F440706C
:103BF000A16908432168486120685649884252D12A
:103C000001F062FA814601F05FFA804601F05CFA49
:103C1000070001F059FA060001F056FA192101FBDC
:103C200009F162689200B1FBF2F16422B1FBF2F19A
:103C3000192202FB08F263689B00B2FBF3F219231E
:103C400003FB07F36768BF00B3FBF7F36427B3FB1D
:103C5000F7F3642707FB1322120132326423B2FB0D
:103C6000F3F212F0F00212EB0111192202FB06F23C
:103C700063689B00B2FBF3F21923584363689B000F
:103C8000B0FBF3F06423B0FBF3F0642303FB1020DC
:103C9000000132306422B0FBF2F010F00F00401847
:103CA0002168886051E001F0FFF9814601F0FCF9DC
:103CB000804601F0F9F9070001F0F6F9060001F07D
:103CC000F3F9192101FB09F162689200B1FBF2F1ED
:103CD0006422B1FBF2F1192202FB08F263689B0037
:103CE000B2FBF3F2192303FB07F36768BF00B3FBD2
:103CF000F7F36427B3FBF7F3642707FB13221201E2
:103D000032326423B2FBF3F212F0F00212EB011133
:103D1000192202FB06F263689B00B2FBF3F219233F
:103D2000584363689B00B0FBF3F06423B0FBF3F0EF
:103D3000642303FB1020000132306422B0FBF2F058
:103D400010F00F00401821688860BDE8F183000082
:103D5000F3E9FFFF0038014010F007024D4B1B68EC
:103D600019004FF6FF0319404B4B53EA0223194346
:103D7000484B1960704747480068C0F302207047FD
:103D8000012110F01F029140444A40B2430942F819
:103D90002310704710B440B2002808D50A01404BE8
:103DA00040B210F00F04E31803F8042C03E00A01FA
:103DB0003C4B40B2C25410BC704770B4030013F0C7
:103DC0000704D4F10706052E01D3042001E0D4F145
:103DD0000700261D072E01D2002500E0E51E012662
:103DE00016FA00F0401E0840A8400121A940491ED3
:103DF0001140084370BC704710B50400601EB0F15C
:103E0000807F01D301200EE0601E274908600F214A
:103E10005FF0FF30FFF7BEFF002024490860072055
:103E200023490860002010BD10B504002000FFF7F2
:103E300093FF10BDF8B504000D0016000027FFF732
:103E40009AFF0700320029003800FFF7B6FF010093
:103E5000200040B2FFF79EFFF1BD10B50400200026
:103E600040B2FFF78DFF10BD10B504002000FFF732
:103E7000C3FF10BD042806D10D49096851F00401A3
:103E80000B4A116005E00A49096831F00401084A4B
:103E9000116070470CED00E00000FA0500E100E061
:103EA00018ED00E000E400E014E000E018E000E0BD
:103EB00010E000E080B500F009F901BD10B5040084
:103EC000002C01D101200AE06079002804D10020F3
:103ED0002071200000F004F801206071002010BD66
:103EE0007047000080B5FDF7D9FF00F0E1FA00F05F
:103EF00021FBFCF75AFAFCF790FAFCF76EFAFCF794
:103F00007CFAFCF799FAFCF7B3FAFCF7C3FAFCF772
:103F1000EDF803F009F8FCF7CFFAFEF745FC03F0E3
:103F200089F80A20FDF7E6FFFCF7ABFA0A20FDF757
:103F3000E1FFDFF82805807850F04000DFF81C151D
:103F40008870DFF81C05FEF79FF803F00CFAFDF708
:103F500065FBDFF8100502F02AF910F1010F1AD104
:103F6000DFF8000502F0A0F9DFF8FC140860DFF8C4
:103F7000EC048078C0F34000C0B200280BD0DFF81A
:103F8000EC04806B401CDFF8E4148863DFF8D8048D
:103F90000068FCF796F9DFF8C404007810F001001F
:103FA000002809D0FDF7DAF8DFF8B004007810F047
:103FB000FE00DFF8A8140870DFF8A0040078C0F352
:103FC0004000C0B200280BD0FCF78EFAFCF774FA60
:103FD000DFF88804007810F0FD00DFF88014087026
:103FE000DFF878040078C0F30010C0B200283BD09E
:103FF000DFF868048078C0F38000C0B2002833D0B6
:10400000DFF858048078C0F3C000C0B2002809D19E
:10401000FCF714FDDFF84404807850F00800DFF866
:104020003C148870DFF834040078C0F3C000C0B2DC
:10403000002819D0FCF70AFDDFF82004807810F082
:10404000FB00DFF818148870DFF81004007810F017
:10405000F700DFF808140870DFF80004807810F02B
:10406000F700DFF8F813887000F04EF900F0E1F87F
:10407000DFF8E8030078C0F38000C0B2002811D058
:10408000FCF722FCDFF8D403007810F0FB00DFF827
:10409000CC130870DFF8C403807810F0BF00DFF89D
:1040A000BC138870DFF8B4038078C0B2C009C0B216
:1040B00000283FF44EAFFCF7BFF9DFF8A00380788B
:1040C00010F07F00DFF89413887042E7DFF88C036C
:1040D000007850F00100DFF884130870704710B5C5
:1040E00004002068DFF8881388420BD1DFF88403CE
:1040F000FEF71FF9DFF86403007850F00200DFF8E4
:104100005C1308702068DFF87013884207D1DFF86D
:104110004C03007850F00400DFF84013087010BD25
:104120000168DFF85823914207D1DFF8301309788E
:1041300051F00801DFF824231170704710B5040016
:104140002068DFF83C13884201D1FCF729FF10BD3D
:1041500010B504002068DFF82C13884268D1DFF81E
:1041600028030078012806D062D3032832D01ED35A
:1041700004284BD05CE003F09FF9C449098840183B
:10418000C2490880C1480088C14909684863BF48DE
:104190000088B0F5707F09DB0220BB490870002061
:1041A000BB49096848630020B849088040E0B94825
:1041B0000088401CB749088003F078F9B5490988A0
:1041C00080B2814205D30020B24908800320AE4965
:1041D00008702DE003F070F9AC4909884018AB492C
:1041E0000880AA480088AA4909684863A748008847
:1041F000B0F5707F09DB0420A34908700020A449B2
:10420000096848630020A149088011E0A24800889D
:10421000401CA149088003F046F99F49098880B2F3
:10422000814205D300209C490880012096490870EE
:1042300010BD80B599480078C0F34000C0B2002896
:1042400007D0FCF762FD9548007810F0FD00934917
:10425000087092480078C0F38000C0B2002807D0F0
:10426000FCF75DFD8D48007810F0FB008B4908706D
:104270008A480078C0F30010C0B2002807D0FCF7CD
:1042800058FD8648007810F0EF0084490870834894
:104290000078C0F3C000C0B2002807D0FCF756FD7C
:1042A0007E48007810F0F7007C4908707B48007861
:1042B000C0F34010C0B2002807D0FCF751FD77488A
:1042C000007810F0DF007549087074480078C0F37A
:1042D0008010C0B2002807D0FCF74CFD6F48007872
:1042E00010F0BF006D4908706C480078C0B2C0097A
:1042F000C0B2002807D0FCF747FD6848007810F0EE
:104300007F006649087001BD10B56548007810F05F
:104310000100002800F0A0800021002003F0C0F977
:1043200004000021002003F0C3F9E4B2844240D02D
:104330005C48007A5B4988720021002003F0B0F9E4
:10434000012818D156480078C0F34000C0B20028B8
:1043500011D15348007850F0020051490870434889
:10436000027A4248C17941488079FEF739FE00203F
:104370003E4908721DE00021002003F091F9012858
:1043800017D147480078C0F34000C0B2002810D0D1
:104390004348007810F0FD00414908703348027A24
:1043A0003248C17931488079FEF71AFE7F202F49C3
:1043B00008720121002003F073F90400012100209C
:1043C00003F076F9E4B2844240D03648407A354969
:1043D000C8720121002003F063F9012818D1304888
:1043E0000078C0F38000C0B2002811D12C480078BA
:1043F00050F004002A4908701C48C27A1B48817A90
:104400001A48407AFEF7ECFD00201849C8721DE0FA
:104410000121002003F044F9012817D12048007839
:10442000C0F38000C0B2002810D01D48007810F002
:10443000FB001B4908700D48C27A0C48817A0B4872
:10444000407AFEF7CDFD7F200849C87214480078F5
:1044500010F0FE001249087010BD0000401F00203F
:104460009C1E002008050020441F0020101D002075
:10447000002401406C1E0020002801400054004030
:104480000048004000080040FF0000206C1F002092
:10449000881D00206E1F0020701F00203C1F002080
:1044A000381F0020FC1E00207047704700000000ED
:1044B00000B593B00220099001200D9010200E90BD
:1044C00002201090002011905FF42010129009A893
:1044D00000F01AF90F2004900220059000200690A9
:1044E0004FF4806007904FF4C0600890022104A848
:1044F00000F07EFC122000904FF4004002905FF428
:1045000080000390684603F019F900F0CAFD4FF4EB
:104510007A71B0FBF1F0FFF7A7FC0420FFF7AAFCCB
:10452000002200215FF0FF30FFF784FC03F0CFF999
:1045300013B000BD00B585B06E48006850F01000A3
:104540006C4908606B48006810F0100000900098FB
:104550006848006850F020006649086065480068B7
:1045600010F02000009000986248006850F00400AD
:10457000604908605F48006810F0040000900098EF
:104580005C48006850F008005A49086059480068C3
:1045900010F00800009000980022E0215648FDF736
:1045A0000EF84FF44040019000200290002003904C
:1045B00001A95248FCF79AFE0820019000200290C1
:1045C0000020039001A94C48FCF790FE10200190B8
:1045D00011200290012003904FF480700190002080
:1045E00002900020039001A94548FCF77FFE4FF49C
:1045F00000500190002002900020039001A93E4845
:10460000FCF774FEE020019001200290022004904B
:104610000020039001A93848FCF768FE04200190AF
:1046200011200290002003900220049001A932483A
:10463000FCF75CFE4FF40070019001200290012015
:1046400003900220049001A92D48FCF74FFE4FF47F
:1046500080500190012002900020039002200490DD
:1046600001A92548FCF742FE05B000BD80B52148F0
:10467000006850F001001F4908601E48006810F0F3
:104680000100009000980320FFF7CEFB00220021DC
:104690007FF00B00FFF7CEFB002200217FF00A0025
:1046A000FFF7C8FB002200217FF00900FFF7C2FBE3
:1046B000002200217FF00400FFF7BCFB0022002154
:1046C0007FF00300FFF7B6FB002200217FF001001E
:1046D000FFF7B0FB002200215FF0FF30FFF7AAFBDD
:1046E0000848006830F0E06050F00070054908604C
:1046F00001BD000018100240000C014000100140F4
:10470000000801400400014038B50400002520786D
:10471000C00740F1D480DFF8D009006810F00C0029
:1047200004280BD0DFF8C009006810F00C0008283E
:104730002AD1DFF8B4090068C00325D54FF48040C2
:10474000B0FA80F050F02000C0B24009C0B2012899
:1047500003D1DFF89809006806E04FF48040B0FA12
:1047600080F0DFF8940900684FF48041B1FA81F1DC
:1047700011F01F01C840C00740F1A1806068002807
:1047800040F09D80012032E36068B0F5803F08D1A1
:10479000DFF85809006850F48030DFF850190860DD
:1047A00038E06068002810D1DFF84009006830F474
:1047B0008030DFF838190860DFF83009006830F41D
:1047C0008020DFF82819086024E06068B0F5A02F89
:1047D00010D1DFF81809006850F48020DFF80C19B8
:1047E0000860DFF80809006850F48030DFF8FC1832
:1047F00008600FE0DFF8F408006830F48030DFF87C
:10480000EC180860DFF8E408006830F48020DFF876
:10481000DC1808606068002828D0FDF768FB0500F8
:104820004FF48040B0FA80F050F02000C0B2400950
:10483000C0B2012803D1DFF8B408006806E04FF4E5
:104840008040B0FA80F0DFF8B00800684FF4804193
:10485000B1FA81F111F01F01C840C0072FD4FDF754
:1048600046FB401B6528DBD30320C0E2FDF73FFB7E
:1048700005004FF48040B0FA80F050F02000C0B244
:104880004009C0B2012803D1DFF86008006806E0E3
:104890004FF48040B0FA80F0DFF85C0800684FF415
:1048A0008041B1FA81F111F01F01C840C00706D55F
:1048B000FDF71DFB401B6528DBD3032097E2207822
:1048C000800740F1BF80DFF82008006810F00C0F6F
:1048D0000BD0DFF81408006810F00C00082839D15C
:1048E000DFF804080068C00334D45FF08040B0FAF9
:1048F00080F050F02000C0B24009C0B2012803D1BE
:10490000DFF8E807006806E05FF08040B0FA80F06A
:10491000DFF8E40700685FF08041B1FA81F111F03F
:104920001F01C840C00704D52069012801D001201B
:104930005DE2DFF8B80700685FF0F851B1FA81F185
:1049400030F0F800626912FA01F10843DFF89C17B1
:10495000086077E02069002842D001205FF0004124
:10496000B1FA81F1DFF8942742F82100FDF7BFFA90
:1049700005005FF08040B0FA80F050F02000C0B237
:104980004009C0B2012803D1DFF86007006806E0E3
:104990005FF08040B0FA80F0DFF85C0700685FF0FD
:1049A0008041B1FA81F111F01F01C840C00706D45F
:1049B000FDF79DFA401B0328DBD3032017E2DFF845
:1049C0002C0700685FF0F851B1FA81F130F0F8007F
:1049D000626912FA01F10843DFF81017086031E04C
:1049E00000205FF00041B1FA81F1DFF8102742F8B2
:1049F0002100FDF77CFA05005FF08040B0FA80F0FE
:104A000050F02000C0B24009C0B2012803D1DFF845
:104A1000DC06006806E05FF08040B0FA80F0DFF866
:104A2000D80600685FF08041B1FA81F111F01F01F2
:104A3000C840C00706D5FDF75AFA401B0328DBD350
:104A40000320D4E12078000754D5A06900282AD09B
:104A500001205FF00041B1FA81F1DFF8A42642F8AD
:104A60002100FDF744FA05005FF08040B0FA80F0C5
:104A70005FF08040B0FA80F0DFF87C0600685FF0FD
:104A80008041B1FA81F111F01F01C840C00706D47E
:104A9000FDF72DFA401B0328E6D30320A7E10120F0
:104AA000FDF728FA26E000205FF00041B1FA81F11D
:104AB000DFF84C2642F82100FDF719FA05005FF0F7
:104AC0008040B0FA80F05FF08040B0FA80F0DFF80C
:104AD000280600685FF08041B1FA81F111F01F01F2
:104AE000C840C00706D5FDF702FA401B0328E6D3ED
:104AF00003207CE12078400740F1C380DFF8040602
:104B0000006850F08050DFF8FC150860DFF8F4050D
:104B1000006810F0805000900098DFF8EC05006805
:104B200050F48070DFF8E0150860FDF7E0F905004B
:104B3000DFF8D4050068C00506D4FDF7D8F9401B9E
:104B40006528F5D3032052E1E068012808D1DFF899
:104B5000BC05006850F00100DFF8B015086037E0D0
:104B6000E068002810D1DFF8A40500684008400084
:104B7000DFF898150860DFF89405006830F004004D
:104B8000DFF88815086023E0E068052810D1DFF819
:104B90007C05006850F00400DFF870150860DFF84D
:104BA0006C05006850F00100DFF8601508600FE048
:104BB000DFF85805006840084000DFF8501508602D
:104BC000DFF84805006830F00400DFF840150860A1
:104BD000E06800282AD0FDF78AF905005FF08040E0
:104BE000B0FA80F05FF08040B0FA80F050F0400002
:104BF000C0B24009C0B2022803D1DFF81005006836
:104C000002E0DFF8F40400685FF08041B1FA81F15E
:104C100011F01F01C840C00733D4FDF768F9401BED
:104C200041F289318842D9D30320E0E0FDF75FF9F2
:104C300005005FF08040B0FA80F05FF08040B0FA8D
:104C400080F050F04000C0B24009C0B2022803D149
:104C5000DFF8B804006802E0DFF89C0400685FF049
:104C60008041B1FA81F111F01F01C840C00708D599
:104C7000FDF73DF9401B41F289318842D9D3032029
:104C8000B5E0E069002800F0B180DFF85C0400685E
:104C900010F00C00082800F0A780E069022875D108
:104CA00000208021B1FA81F1DFF8502442F8210080
:104CB000FDF71DF905004020B0FA80F050F020000B
:104CC000C0B24009C0B2012803D1DFF82004006857
:104CD00005E04020B0FA80F0DFF81C0400684021B5
:104CE000B1FA81F111F01F01C840C00706D5FDF7E8
:104CF000FEF8401B0328DED3032078E0206AB0F5DD
:104D0000803F09D1DFF8E003006830F40030A1688B
:104D10000843DFF8D4130860DFF8CC03006830F4F0
:104D20007410216A0843616A0843DFF8BC13086005
:104D300001208021B1FA81F1DFF8C02342F821007F
:104D4000FDF7D5F805004020B0FA80F050F02000C3
:104D5000C0B24009C0B2012803D1DFF89003006857
:104D600005E04020B0FA80F0DFF88C0300684021B5
:104D7000B1FA81F111F01F01C840C00736D4FDF728
:104D8000B6F8401B0328DED3032030E0002080214A
:104D9000B1FA81F1DFF8642342F82100FDF7A7F8AA
:104DA00005004020B0FA80F050F02000C0B2400969
:104DB000C0B2012803D1DFF83403006805E04020C9
:104DC000B0FA80F0DFF8300300684021B1FA81F1D9
:104DD00011F01F01C840C00708D5FDF788F8401B37
:104DE0000328DED3032002E0012000E0002032BDD2
:104DF00070B504000D000026DFF81403006810F001
:104E00000700A84211D2DFF808030068C008C000FC
:104E10002843DFF8FC120860DFF8F402006810F0A5
:104E20000700A84201D00120F5E02078800709D5CD
:104E3000DFF8B402006830F0F000A1680843DFF842
:104E4000A81208602078C00740F1A580606801289A
:104E500020D14FF48040B0FA80F050F02000C0B272
:104E60004009C0B2012803D1DFF88002006806E0E3
:104E70004FF48040B0FA80F0DFF87C0200684FF415
:104E80008041B1FA81F111F01F01C840C00743D43D
:104E90000120C0E0606802281DD14020B0FA80F0F7
:104EA00050F02000C0B24009C0B2012803D1DFF8A1
:104EB0003C02006805E04020B0FA80F0DFF83802DC
:104EC00000684021B1FA81F111F01F01C840C0070C
:104ED00022D401209FE05FF08040B0FA80F050F0D3
:104EE0002000C0B24009C0B2012803D1DFF8FC01A4
:104EF000006806E05FF08040B0FA80F0DFF8F8016B
:104F000000685FF08041B1FA81F111F01F01C840E3
:104F1000C00701D401207EE0DFF8CC0100688008E2
:104F2000800061680843DFF8C0110860FCF7DFFF0C
:104F30000600606801280ED16B48006810F00C0074
:104F4000042828D0FCF7D3FF801B41F28931884226
:104F5000F2D303205FE0606802280ED16248006847
:104F600010F00C00082816D0FCF7C1FF801B41F29E
:104F700089318842F2D303204DE05B48006810F08D
:104F80000C0F08D0FCF7B3FF801B41F28931884237
:104F9000F3D303203FE05E48006810F0070085422D
:104FA0000ED25B480068C008C0002843584908601A
:104FB0005748006810F00700A84201D001202AE0FD
:104FC0002078400707D54848006830F4E060E16881
:104FD0000843454908602078000708D54248006822
:104FE00030F46050216950EAC1003F49086000F088
:104FF00013F83D4909685FF07062B2FA82F2454BDE
:1050000011F0F001D140C95CC8403A490860002065
:10501000FCF755FF002070BDF0B585B001A83E49F2
:10502000102202F0B9FC3D480088ADF800000021D4
:1050300000220023002400202B4D2D68290011F0B0
:105040000C05042D02D0082D03D026E0344D280095
:1050500025E001AD11F470164FF47057B7FA87F7D9
:10506000FE40755D2C00CD0311D51F4D2D686E4699
:1050700015F400354FF48047B7FA87F7FD40AD5D72
:105080002A00274DB5FBF2F565432B0003E0254DC3
:1050900005FB04F52B00180001E0154D280005B0B4
:1050A000F0BD14480068704780B5FFF7FAFF0E495D
:1050B00009685FF46002B2FA82F21B4B11F4E061FE
:1050C000D140C95CC84002BD80B5FFF7EAFF064980
:1050D00009685FF4E012B2FA82F2134B11F46051E6
:1050E000D140C95CC84002BD04100240001002401B
:1050F00000127A000000002024100240000042420A
:10510000800442421C100240007000402010024007
:1051100000200240849100087491000836100008B5
:105120000024F40000093D00E8910008010000227D
:10513000002901D1012024E091F82100002802D1AA
:10514000002081F82000022081F821000868006812
:1051500002006FF30D1248688B681843CB68184340
:105160000B6918434B6918438B691843CB69184383
:1051700002430868026000204863012081F8210092
:1051800000207047F8B504000D0016001F0094F8C9
:105190002000012801D102202AE0012084F820000B
:1051A000022084F82100206800684008400021683F
:1051B00008603B0032002900200000F0B3F92068AD
:1051C000006850F00200216808602068006850F014
:1051D0000400216808602068006850F00800216819
:1051E00008602068006850F0010021680860002015
:1051F000F2BD38B504000025206800684008400072
:1052000021680860FCF773FE050020680068C0078D
:1052100011D5FCF76CFE401BB0F57A7FF5D9606BB9
:1052200050F020006063032084F82100002084F8FF
:105230002000032006E0012084F82100002084F8EB
:105240002000002032BD10B50400B5480068216878
:10525000AC4A914201D1082123E02168AA4A914237
:1052600001D180211DE02168A84A914202D14FF46A
:10527000006116E02168A64A914202D14FF4004134
:105280000FE02168A34A914202D15FF4002108E0B7
:105290002168A14A914202D15FF4000101E05FF070
:1052A0000061084245D020680068000741D52068A9
:1052B000006830F008002168086020689149884241
:1052C00001D1082023E020688F49884201D1802045
:1052D0001DE020688D49884202D14FF4006016E03D
:1052E00020688B49884202D14FF400400FE02068CB
:1052F0008849884202D15FF4002008E0206886498E
:10530000884202D15FF4000001E05FF00060834951
:105310000860606B50F001006063042084F8210095
:10532000002084F82000206B002802D02000216B90
:1053300088477B4800682168724A914201D1042164
:1053400023E02168704A914201D140211DE021688B
:105350006E4A914202D14FF4806116E021686C4A96
:10536000914202D14FF480410FE02168694A914295
:1053700002D15FF4802108E02168674A914202D19E
:105380005FF4800101E05FF08061084242D0206854
:10539000006840073ED520680068800605D4206874
:1053A000006830F004002168086020685549884290
:1053B00001D1042023E020685349884201D14020D4
:1053C0001DE020685149884202D14FF4806016E008
:1053D00020684F49884202D14FF480400FE0206896
:1053E0004C49884202D15FF4802008E020684A4995
:1053F000884202D15FF4800001E05FF0806047499D
:105400000860112084F82100E06A002802D0200002
:10541000E16A88474248006821683A4A914201D1CE
:10542000022123E02168384A914201D120211DE068
:105430002168364A914202D14FF4007116E021688A
:10544000334A914202D14FF400510FE02168314AB2
:10545000914202D15FF4003108E021682E4A914266
:1054600002D15FF4001101E05FF00071084247D003
:1054700020680068800743D520680068800605D44E
:105480002068006830F002002168086020681D492B
:10549000884201D1022023E020681B49884201D1C3
:1054A00020201DE020681949884202D14FF4007085
:1054B00016E020681649884202D14FF400500FE0F0
:1054C00020681449884202D15FF4003008E0206867
:1054D0001149884202D15FF4001001E05FF00070D2
:1054E0000E490860606B6063012084F82100002091
:1054F00084F82000A06A002802D02000A16A884712
:1055000010BD0000080002401C00024030000240B4
:1055100044000240580002406C0002400400024077
:105520000000024010B4046863604468102C04D189
:105530000468A2600468E16003E00468A160046894
:10554000E26010BC704700007047000000B500BF6B
:10555000130096469446103928BFA0E80C50FAD89C
:105560005FEA417C28BF0CC048BF40F8042BC90744
:1055700028BF20F8022B48BF00F8012B00BD000017
:1055800070B5040000250026002C01D1012052E056
:1055900094F83500002805D1002084F8340020005C
:1055A000FDF7C0F9242084F8350020680068400821
:1055B000400021680860FFF777FD0600DFF8080566
:1055C000B6FBF0F00500206845606068DFF8FC1469
:1055D000884201D2681C08E04FF4967000FB05F089
:1055E0004FF47A71B0FBF1F0401C21680862310081
:1055F000200000F02EFC2168C861E069216A0843A0
:10560000216808602069E168084321688860606952
:10561000A16908432168C8602068006850F0010053
:10562000216808600020A063202084F83500002055
:1056300084F83600002070BD2DE9F04182B00400EE
:105640000D0016001F00DDF8208094F8350020289A
:1056500040F08F80002E02D0BFB2002F01D1012078
:1056600088E042F210730122DFF86414200000F099
:1056700040FC002801D002207CE094F8340001288E
:1056800001D1022076E0012084F83400206800680F
:1056900030F4006021680860212084F83500102073
:1056A00084F836000020A0634246290089B2200019
:1056B00000F0D3FA00280CD0A06B042804D10020FD
:1056C00084F83400012055E0002084F834000320E1
:1056D00050E0206840690090206880690090009840
:1056E000BFB2002F24D04146200000F0C0FC0028AB
:1056F0000CD0A06B042807D12068006850F400701B
:1057000021680860012035E0032033E0307821680B
:105710000861761C7F1E206840694007E0D5BFB253
:10572000002FDDD0307821680861761C7F1ED7E716
:105730004146200000F0C4FC00280CD0A06B0428D7
:1057400007D12068006850F40070216808600120CB
:1057500010E003200EE02068006850F4007021681B
:105760000860202084F83500002084F834000020F0
:1057700000E00220BDE8F6812DE9F04182B004008E
:105780000D0016001F00DDF8208094F83500202859
:1057900040F01881002E02D0BFB2002F01D10120AD
:1057A00011E142F210730122DFF82413200000F00F
:1057B000A0FB002801D0022005E194F83400012864
:1057C00001D10220FFE0012084F834002068006845
:1057D00030F4006021680860222084F83500102031
:1057E00084F836000020A0634246290089B22000D8
:1057F00000F07EFA00280CD0A06B042804D1002011
:1058000084F834000120DEE0002084F83400032016
:10581000D9E0BFB2012F15D12068006830F4806054
:105820002168086072B6206840690090206880692D
:10583000009000982068006850F4007021680860AB
:1058400062B625E0BFB2022F15D12068006850F47F
:1058500000602168086072B6206840690090206886
:105860008069009000982068006830F480602168AA
:10587000086062B60CE02068006850F4806021681F
:105880000860206840690090206880690090009856
:10589000BFB2002F00F08B80BFB2042F6ADABFB214
:1058A000012F12D14146200000F033FC002806D021
:1058B000A06B202801D1032085E0012083E020682F
:1058C00000693070761C7F1EE2E7BFB2022F1DD147
:1058D00043460022DFF8FC11200000F00AFB0028FC
:1058E00001D003206FE072B62068006850F40070A9
:1058F00021680860206800693070761C7F1E62B6DF
:10590000206800693070761C7F1EC1E74346002284
:10591000DFF8C011200000F0ECFA002801D00320CD
:1059200051E02068006830F480602168086072B639
:10593000206800693070761C7F1E43460022DFF825
:105940009411200000F0D5FA002801D003203AE09D
:105950002068006850F400702168086020680069C1
:105960003070761C7F1E62B6206800693070761C2D
:105970007F1E8DE74146200000F0CBFB002806D0BB
:10598000A06B202801D103201DE001201BE020682E
:1059900000693070761C7F1E2068406940077FF5E3
:1059A00077AF206800693070761C7F1E70E720207A
:1059B00084F83500002084F83600002084F8340094
:1059C000002000E00220BDE8F681F8B504000D00DB
:1059D00016001F0094F83500202873D1002E02D045
:1059E000BFB2002F01D101206DE042F210730122FD
:1059F0003749200000F07DFA002801D0022062E043
:105A000094F83400012801D102205CE0012084F8E0
:105A100034002068006830F40060216808602220AB
:105A200084F83500102084F836000020A0636662F8
:105A300027856785DFF8A400216B8862DFF898006E
:105A4000216B0863BFB23B003200206810F11001E7
:105A5000206BFFF797FB2322290089B2200000F07A
:105A600047F900280CD0A06B042804D1002084F84A
:105A70003400012027E0002084F83400032022E0D5
:105A8000BFB2012F06D12068006830F48060216821
:105A9000086005E02068406850F480502168486044
:105AA0002068406850F400602168486020684069C0
:105AB00000902068806900900098002084F83400ED
:105AC000002000E00220F2BD40420F00A18601004C
:105AD0000200100004000100C15E0008F75D00082C
